{
  "transactions": [
    {
      "hash": "0x752d591f411de0463f72652c33fc7d5e4620d88f387e8ee58ef88b6354fd77a4",
      "transactionType": "CALL",
      "contractName": null,
      "contractAddress": "0x101371f98a919c21c50d09f6c7dc3ef83944bdc5",
      "function": "approve(address,uint256)",
      "arguments": [
        "0x99DFADCD62593325BcF82ED1f55d87840E93a966",
        "1000000000000000000000000"
      ],
      "transaction": {
        "from": "0x99dfadcd62593325bcf82ed1f55d87840e93a966",
        "to": "0x101371f98a919c21c50d09f6c7dc3ef83944bdc5",
        "gas": "0x96ca",
        "value": "0x0",
        "input": "0x095ea7b300000000000000000000000099dfadcd62593325bcf82ed1f55d87840e93a96600000000000000000000000000000000000000000000d3c21bcecceda1000000",
        "nonce": "0x16d",
        "chainId": "0xaa36a7"
      },
      "additionalContracts": [],
      "isFixedGasLimit": false
    },
    {
      "hash": "0x8a70ce73ba671babeb2f5def77a6bf081a6039b7bc422728bbd1ace2db9b4ed4",
      "transactionType": "CALL",
      "contractName": null,
      "contractAddress": "0x101371f98a919c21c50d09f6c7dc3ef83944bdc5",
      "function": "transferFrom(address,address,uint256)",
      "arguments": [
        "0x99DFADCD62593325BcF82ED1f55d87840E93a966",
        "0x60C7A23B85903EE6B5598e2800865E0AC35d94f9",
        "1000000000000000000000000"
      ],
      "transaction": {
        "from": "0x99dfadcd62593325bcf82ed1f55d87840e93a966",
        "to": "0x101371f98a919c21c50d09f6c7dc3ef83944bdc5",
        "gas": "0x10c84",
        "value": "0x0",
        "input": "0x23b872dd00000000000000000000000099dfadcd62593325bcf82ed1f55d87840e93a96600000000000000000000000060c7a23b85903ee6b5598e2800865e0ac35d94f900000000000000000000000000000000000000000000d3c21bcecceda1000000",
        "nonce": "0x16e",
        "chainId": "0xaa36a7"
      },
      "additionalContracts": [],
      "isFixedGasLimit": false
    }
  ],
  "receipts": [
    {
      "status": "0x1",
      "cumulativeGasUsed": "0x6499a4",
      "logs": [
        {
          "address": "0x101371f98a919c21c50d09f6c7dc3ef83944bdc5",
          "topics": [
            "0x8c5be1e5ebec7d5bd14f71427d1e84f3dd0314c0f7b2291e5b200ac8c7c3b925",
            "0x00000000000000000000000099dfadcd62593325bcf82ed1f55d87840e93a966",
            "0x00000000000000000000000099dfadcd62593325bcf82ed1f55d87840e93a966"
          ],
          "data": "0x00000000000000000000000000000000000000000000d3c21bcecceda1000000",
          "blockHash": "0x587f88bd6205abeb36833f8e732f1a3d87af73db0b859927004a212cfe14ecdc",
          "blockNumber": "0x65cc9d",
          "transactionHash": "0x752d591f411de0463f72652c33fc7d5e4620d88f387e8ee58ef88b6354fd77a4",
          "transactionIndex": "0x4f",
          "logIndex": "0x8a",
          "removed": false
        }
      ],
      "logsBloom": "0x00000000000000000000000000000000000000000000000000000000000000000000000000000000000000000000000000000000000000000000000000200000000000000000000000000000000000000040000000000000000000000000000000000000000000000000000000000000000000000000000000000000000000000000000000000000000000000000000000000002000000000000000000000000020000000000000000000000000000000000000000000800000000000000000000000000000000000000000000000000000000000000000000200000000000000010000000000000010000000000000100000000000000000000000000000000",
      "type": "0x2",
      "transactionHash": "0x752d591f411de0463f72652c33fc7d5e4620d88f387e8ee58ef88b6354fd77a4",
      "transactionIndex": "0x4f",
      "blockHash": "0x587f88bd6205abeb36833f8e732f1a3d87af73db0b859927004a212cfe14ecdc",
      "blockNumber": "0x65cc9d",
      "gasUsed": "0x671b",
      "effectiveGasPrice": "0xc10d2c422",
      "from": "0x99dfadcd62593325bcf82ed1f55d87840e93a966",
      "to": "0x101371f98a919c21c50d09f6c7dc3ef83944bdc5",
      "contractAddress": null
    },
    {
      "status": "0x1",
      "cumulativeGasUsed": "0x655c0b",
      "logs": [
        {
          "address": "0x101371f98a919c21c50d09f6c7dc3ef83944bdc5",
          "topics": [
            "0x8c5be1e5ebec7d5bd14f71427d1e84f3dd0314c0f7b2291e5b200ac8c7c3b925",
            "0x00000000000000000000000099dfadcd62593325bcf82ed1f55d87840e93a966",
            "0x00000000000000000000000099dfadcd62593325bcf82ed1f55d87840e93a966"
          ],
          "data": "0x0000000000000000000000000000000000000000000000000000000000000000",
          "blockHash": "0x587f88bd6205abeb36833f8e732f1a3d87af73db0b859927004a212cfe14ecdc",
          "blockNumber": "0x65cc9d",
          "transactionHash": "0x8a70ce73ba671babeb2f5def77a6bf081a6039b7bc422728bbd1ace2db9b4ed4",
          "transactionIndex": "0x50",
          "logIndex": "0x8b",
          "removed": false
        },
        {
          "address": "0x101371f98a919c21c50d09f6c7dc3ef83944bdc5",
          "topics": [
            "0xddf252ad1be2c89b69c2b068fc378daa952ba7f163c4a11628f55a4df523b3ef",
            "0x00000000000000000000000099dfadcd62593325bcf82ed1f55d87840e93a966",
            "0x00000000000000000000000060c7a23b85903ee6b5598e2800865e0ac35d94f9"
          ],
          "data": "0x00000000000000000000000000000000000000000000d3c21bcecceda1000000",
          "blockHash": "0x587f88bd6205abeb36833f8e732f1a3d87af73db0b859927004a212cfe14ecdc",
          "blockNumber": "0x65cc9d",
          "transactionHash": "0x8a70ce73ba671babeb2f5def77a6bf081a6039b7bc422728bbd1ace2db9b4ed4",
          "transactionIndex": "0x50",
          "logIndex": "0x8c",
          "removed": false
        }
      ],
      "logsBloom": "0x00000000000000000000000000000000000000000000000000000000000000000000000000000000000000000000000000000000000000000000000000200000000000000000000000000808000000000040000000000000000000000000000000000000000000000000000000000000000000000000000000000010000000000000000000000800000000000000000000000002000000000000000000000000020000000000000000000000000000000000000000000800000000000000000000000002000000000000000000000000000000040000000000200000000000000010000000000000010000000000000100000000000000000000000000000000",
      "type": "0x2",
      "transactionHash": "0x8a70ce73ba671babeb2f5def77a6bf081a6039b7bc422728bbd1ace2db9b4ed4",
      "transactionIndex": "0x50",
      "blockHash": "0x587f88bd6205abeb36833f8e732f1a3d87af73db0b859927004a212cfe14ecdc",
      "blockNumber": "0x65cc9d",
      "gasUsed": "0xc267",
      "effectiveGasPrice": "0xc10d2c422",
      "from": "0x99dfadcd62593325bcf82ed1f55d87840e93a966",
      "to": "0x101371f98a919c21c50d09f6c7dc3ef83944bdc5",
      "contractAddress": null
    }
  ],
  "libraries": [],
  "pending": [],
  "returns": {},
  "timestamp": 1726048250,
  "chain": 11155111,
  "commit": "a5e45b6"
}